{
  "contractName": "ERC223ReceivingContract",
  "abi": [
    {
      "constant": false,
      "inputs": [
        {
          "name": "_from",
          "type": "address"
        },
        {
          "name": "_value",
          "type": "uint256"
        },
        {
          "name": "_data",
          "type": "bytes"
        }
      ],
      "name": "tokenFallback",
      "outputs": [],
      "payable": false,
      "stateMutability": "nonpayable",
      "type": "function"
    }
  ],
  "bytecode": "0x608060405234801561001057600080fd5b50610610806100206000396000f300608060405260043610610041576000357c0100000000000000000000000000000000000000000000000000000000900463ffffffff168063c0ee0b8a14610046575b600080fd5b34801561005257600080fd5b506100d7600480360381019080803573ffffffffffffffffffffffffffffffffffffffff16906020019092919080359060200190929190803590602001908201803590602001908080601f01602080910402602001604051908101604052809392919081815260200183838082843782019150505050505091929192905050506100d9565b005b6100e16104e1565b600084826000019073ffffffffffffffffffffffffffffffffffffffff16908173ffffffffffffffffffffffffffffffffffffffff168152505083826020018181525050828260400181905250601883600081518110151561013f57fe5b9060200101517f010000000000000000000000000000000000000000000000000000000000000090047f0100000000000000000000000000000000000000000000000000000000000000027f0100000000000000000000000000000000000000000000000000000000000000900463ffffffff169060020a0260108460018151811015156101c957fe5b9060200101517f010000000000000000000000000000000000000000000000000000000000000090047f0100000000000000000000000000000000000000000000000000000000000000027f0100000000000000000000000000000000000000000000000000000000000000900463ffffffff169060020a02600885600281518110151561025357fe5b9060200101517f010000000000000000000000000000000000000000000000000000000000000090047f0100000000000000000000000000000000000000000000000000000000000000027f0100000000000000000000000000000000000000000000000000000000000000900463ffffffff169060020a028560038151811015156102db57fe5b9060200101517f010000000000000000000000000000000000000000000000000000000000000090047f0100000000000000000000000000000000000000000000000000000000000000027f010000000000000000000000000000000000000000000000000000000000000090040101019050807c01000000000000000000000000000000000000000000000000000000000282606001907bffffffffffffffffffffffffffffffffffffffffffffffffffffffff191690817bffffffffffffffffffffffffffffffffffffffffffffffffffffffff191681525050836000808773ffffffffffffffffffffffffffffffffffffffff1673ffffffffffffffffffffffffffffffffffffffff168152602001908152602001600020819055506001829080600181540180825580915050906001820390600052602060002090600402016000909192909190915060008201518160000160006101000a81548173ffffffffffffffffffffffffffffffffffffffff021916908373ffffffffffffffffffffffffffffffffffffffff16021790555060208201518160010155604082015181600201908051906020019061049592919061053f565b5060608201518160030160006101000a81548163ffffffff02191690837c0100000000000000000000000000000000000000000000000000000000900402179055505050505050505050565b608060405190810160405280600073ffffffffffffffffffffffffffffffffffffffff168152602001600081526020016060815260200160007bffffffffffffffffffffffffffffffffffffffffffffffffffffffff191681525090565b828054600181600116156101000203166002900490600052602060002090601f016020900481019282601f1061058057805160ff19168380011785556105ae565b828001600101855582156105ae579182015b828111156105ad578251825591602001919060010190610592565b5b5090506105bb91906105bf565b5090565b6105e191905b808211156105dd5760008160009055506001016105c5565b5090565b905600a165627a7a72305820366d5aa44f58bebb1a7a5368327041c40eccae4291feb99b9683caa4d286f9150029",
  "source": "pragma solidity ^0.4.24;\n\n/*************************************************\n* Title: ERC223 Receiver Wrapper Contract\n* Author: https://github.com/willitscale\n* Date: NA\n* Code version: NA\n* Availability: https://github.com/willitscale/learning-solidity/blob/master/tutorial-10/ERC223ReceivingContract.sol\n*************************************************/\n\n/// @title Interface for ERC223 Receiving Contract\n/// @author keshik\n/// @dev The contract is a wrapper for ERC223 contracts which recieve funds\ncontract ERC223ReceivingContract {\n    struct TKN {\n     address sender;\n     uint256 value;\n     bytes data;\n     bytes4 sig;\n    }\n\n    mapping(address => uint256) internal _transferredAmounts;\n    TKN[] _transactionData;\n\n\n    /* tkn variable is analogue of msg variable of Ether transaction\n    *  tkn.sender is person who initiated this token transaction   (analogue of msg.sender)\n    *  tkn.value the number of tokens that were sent   (analogue of msg.value)\n    *  tkn.data is data of token transaction   (analogue of msg.data)\n    *  tkn.sig is 4 bytes signature of function\n    *  if data of token transaction is a function execution\n    */\n    function tokenFallback(address _from, uint256 _value, bytes _data) public {\n      TKN memory tkn;\n      tkn.sender = _from;\n      tkn.value = _value;\n      tkn.data = _data;\n      uint32 u = uint32(_data[3]) + (uint32(_data[2]) << 8) + (uint32(_data[1]) << 16) + (uint32(_data[0]) << 24);\n      tkn.sig = bytes4(u);\n      _transferredAmounts[_from] = _value;\n      _transactionData.push(tkn);\n    }\n\n\n}\n",
  "sourcePath": "/home/keshik/Documents/GitHub/event-protocol-contracts/contracts/ERC223ReceivingContract.sol",
  "compiler": {
    "name": "solc",
    "version": "0.4.24+commit.e67f0147.Emscripten.clang"
  },
  "schemaVersion": "2.0.1",
  "updatedAt": "2018-08-12T06:17:07.979Z"
}