{
  "contractName": "EventToken",
  "abi": [
    {
      "constant": true,
      "inputs": [],
      "name": "name",
      "outputs": [
        {
          "name": "",
          "type": "string"
        }
      ],
      "payable": false,
      "stateMutability": "view",
      "type": "function"
    },
    {
      "constant": true,
      "inputs": [],
      "name": "totalSupply",
      "outputs": [
        {
          "name": "",
          "type": "uint256"
        }
      ],
      "payable": false,
      "stateMutability": "view",
      "type": "function"
    },
    {
      "constant": true,
      "inputs": [],
      "name": "symbol",
      "outputs": [
        {
          "name": "",
          "type": "string"
        }
      ],
      "payable": false,
      "stateMutability": "view",
      "type": "function"
    },
    {
      "constant": true,
      "inputs": [],
      "name": "decimels",
      "outputs": [
        {
          "name": "",
          "type": "uint8"
        }
      ],
      "payable": false,
      "stateMutability": "view",
      "type": "function"
    },
    {
      "inputs": [
        {
          "name": "_ctrl2",
          "type": "address"
        }
      ],
      "payable": false,
      "stateMutability": "nonpayable",
      "type": "constructor"
    },
    {
      "anonymous": false,
      "inputs": [
        {
          "indexed": false,
          "name": "_from",
          "type": "address"
        },
        {
          "indexed": false,
          "name": "_to",
          "type": "address"
        },
        {
          "indexed": false,
          "name": "_value",
          "type": "uint256"
        },
        {
          "indexed": false,
          "name": "_contractId",
          "type": "uint256"
        }
      ],
      "name": "Transfer",
      "type": "event"
    },
    {
      "anonymous": false,
      "inputs": [
        {
          "indexed": false,
          "name": "_from",
          "type": "address"
        },
        {
          "indexed": false,
          "name": "_to",
          "type": "address"
        },
        {
          "indexed": false,
          "name": "_value",
          "type": "uint256"
        }
      ],
      "name": "Transfer",
      "type": "event"
    },
    {
      "anonymous": false,
      "inputs": [
        {
          "indexed": false,
          "name": "_from",
          "type": "address"
        },
        {
          "indexed": false,
          "name": "_to",
          "type": "address"
        },
        {
          "indexed": false,
          "name": "_value",
          "type": "uint256"
        }
      ],
      "name": "Approval",
      "type": "event"
    },
    {
      "constant": true,
      "inputs": [
        {
          "name": "_owner",
          "type": "address"
        }
      ],
      "name": "balanceOf",
      "outputs": [
        {
          "name": "",
          "type": "uint256"
        }
      ],
      "payable": false,
      "stateMutability": "view",
      "type": "function"
    },
    {
      "constant": false,
      "inputs": [
        {
          "name": "_to",
          "type": "address"
        },
        {
          "name": "_value",
          "type": "uint256"
        }
      ],
      "name": "transfer",
      "outputs": [
        {
          "name": "",
          "type": "bool"
        }
      ],
      "payable": false,
      "stateMutability": "nonpayable",
      "type": "function"
    },
    {
      "constant": false,
      "inputs": [
        {
          "name": "_to",
          "type": "address"
        },
        {
          "name": "_value",
          "type": "uint256"
        },
        {
          "name": "_contractId",
          "type": "uint256"
        }
      ],
      "name": "transferToContract",
      "outputs": [
        {
          "name": "",
          "type": "bool"
        }
      ],
      "payable": false,
      "stateMutability": "nonpayable",
      "type": "function"
    },
    {
      "constant": false,
      "inputs": [
        {
          "name": "_from",
          "type": "address"
        },
        {
          "name": "_to",
          "type": "address"
        },
        {
          "name": "_value",
          "type": "uint256"
        }
      ],
      "name": "transferFrom",
      "outputs": [
        {
          "name": "",
          "type": "bool"
        }
      ],
      "payable": false,
      "stateMutability": "nonpayable",
      "type": "function"
    },
    {
      "constant": false,
      "inputs": [
        {
          "name": "_spender",
          "type": "address"
        },
        {
          "name": "_value",
          "type": "uint256"
        }
      ],
      "name": "approve",
      "outputs": [
        {
          "name": "",
          "type": "bool"
        }
      ],
      "payable": false,
      "stateMutability": "nonpayable",
      "type": "function"
    },
    {
      "constant": true,
      "inputs": [
        {
          "name": "_owner",
          "type": "address"
        },
        {
          "name": "_spender",
          "type": "address"
        }
      ],
      "name": "allowance",
      "outputs": [
        {
          "name": "",
          "type": "uint256"
        }
      ],
      "payable": false,
      "stateMutability": "view",
      "type": "function"
    },
    {
      "constant": true,
      "inputs": [
        {
          "name": "_address",
          "type": "address"
        }
      ],
      "name": "isContract",
      "outputs": [
        {
          "name": "",
          "type": "bool"
        }
      ],
      "payable": false,
      "stateMutability": "view",
      "type": "function"
    },
    {
      "constant": true,
      "inputs": [],
      "name": "getCtrlAddress1",
      "outputs": [
        {
          "name": "",
          "type": "address"
        }
      ],
      "payable": false,
      "stateMutability": "view",
      "type": "function"
    },
    {
      "constant": true,
      "inputs": [],
      "name": "getCtrlAddress2",
      "outputs": [
        {
          "name": "",
          "type": "address"
        }
      ],
      "payable": false,
      "stateMutability": "view",
      "type": "function"
    },
    {
      "constant": false,
      "inputs": [
        {
          "name": "_newCtrl1",
          "type": "address"
        }
      ],
      "name": "setCtrlAddress1",
      "outputs": [
        {
          "name": "",
          "type": "bool"
        }
      ],
      "payable": false,
      "stateMutability": "nonpayable",
      "type": "function"
    },
    {
      "constant": false,
      "inputs": [
        {
          "name": "_newCtrl2",
          "type": "address"
        }
      ],
      "name": "setCtrlAddress2",
      "outputs": [
        {
          "name": "",
          "type": "bool"
        }
      ],
      "payable": false,
      "stateMutability": "nonpayable",
      "type": "function"
    },
    {
      "constant": false,
      "inputs": [],
      "name": "pause",
      "outputs": [
        {
          "name": "",
          "type": "bool"
        }
      ],
      "payable": false,
      "stateMutability": "nonpayable",
      "type": "function"
    },
    {
      "constant": false,
      "inputs": [],
      "name": "resume",
      "outputs": [
        {
          "name": "",
          "type": "bool"
        }
      ],
      "payable": false,
      "stateMutability": "nonpayable",
      "type": "function"
    },
    {
      "constant": true,
      "inputs": [],
      "name": "isActive",
      "outputs": [
        {
          "name": "",
          "type": "bool"
        }
      ],
      "payable": false,
      "stateMutability": "view",
      "type": "function"
    }
  ],
  "bytecode": "0x6080604052600a6004553480156200001657600080fd5b5060405160208062002154833981018060405281019080805190602001909291905050506040805190810160405280600a81526020017f4576656e74546f6b656e000000000000000000000000000000000000000000008152506040805190810160405280600281526020017f45540000000000000000000000000000000000000000000000000000000000008152506012631dcd65008360009080519060200190620000c592919062000268565b508260019080519060200190620000de92919062000268565b5081600260006101000a81548160ff021916908360ff1602179055506200013081600260009054906101000a900460ff1660ff166004540a6200022c6401000000000262001dc9176401000000009004565b6003819055505050505033600560006101000a81548173ffffffffffffffffffffffffffffffffffffffff021916908373ffffffffffffffffffffffffffffffffffffffff16021790555080600660006101000a81548173ffffffffffffffffffffffffffffffffffffffff021916908373ffffffffffffffffffffffffffffffffffffffff160217905550600354600860003373ffffffffffffffffffffffffffffffffffffffff1673ffffffffffffffffffffffffffffffffffffffff168152602001908152602001600020819055506000600660146101000a81548160ff02191690831515021790555060006007819055505062000317565b60008083141562000241576000905062000262565b81830290508183828115156200025357fe5b041415156200025e57fe5b8090505b92915050565b828054600181600116156101000203166002900490600052602060002090601f016020900481019282601f10620002ab57805160ff1916838001178555620002dc565b82800160010185558215620002dc579182015b82811115620002db578251825591602001919060010190620002be565b5b509050620002eb9190620002ef565b5090565b6200031491905b8082111562000310576000816000905550600101620002f6565b5090565b90565b611e2d80620003276000396000f3006080604052600436106100fc576000357c0100000000000000000000000000000000000000000000000000000000900463ffffffff168063046f7da21461010157806306fdde0314610130578063095ea7b3146101c0578063162790551461022557806318160ddd1461028057806322f3e2d4146102ab57806323b872dd146102da5780635ca496051461035f57806370a08231146103ba5780638456cb59146104115780638c349bff1461044057806394e625bd1461049b57806395d89b41146104f257806395f847fd14610582578063a9059cbb146105f1578063bfccbec814610656578063dd62ed3e146106ad578063f08782fc14610724575b600080fd5b34801561010d57600080fd5b50610116610755565b604051808215151515815260200191505060405180910390f35b34801561013c57600080fd5b5061014561084f565b6040518080602001828103825283818151815260200191508051906020019080838360005b8381101561018557808201518184015260208101905061016a565b50505050905090810190601f1680156101b25780820380516001836020036101000a031916815260200191505b509250505060405180910390f35b3480156101cc57600080fd5b5061020b600480360381019080803573ffffffffffffffffffffffffffffffffffffffff169060200190929190803590602001909291905050506108f1565b604051808215151515815260200191505060405180910390f35b34801561023157600080fd5b50610266600480360381019080803573ffffffffffffffffffffffffffffffffffffffff169060200190929190505050610b45565b604051808215151515815260200191505060405180910390f35b34801561028c57600080fd5b50610295610b58565b6040518082815260200191505060405180910390f35b3480156102b757600080fd5b506102c0610b62565b604051808215151515815260200191505060405180910390f35b3480156102e657600080fd5b50610345600480360381019080803573ffffffffffffffffffffffffffffffffffffffff169060200190929190803573ffffffffffffffffffffffffffffffffffffffff16906020019092919080359060200190929190505050610b7f565b604051808215151515815260200191505060405180910390f35b34801561036b57600080fd5b506103a0600480360381019080803573ffffffffffffffffffffffffffffffffffffffff169060200190929190505050610fd7565b604051808215151515815260200191505060405180910390f35b3480156103c657600080fd5b506103fb600480360381019080803573ffffffffffffffffffffffffffffffffffffffff1690602001909291905050506110bb565b6040518082815260200191505060405180910390f35b34801561041d57600080fd5b50610426611104565b604051808215151515815260200191505060405180910390f35b34801561044c57600080fd5b50610481600480360381019080803573ffffffffffffffffffffffffffffffffffffffff1690602001909291905050506111fe565b604051808215151515815260200191505060405180910390f35b3480156104a757600080fd5b506104b06112e2565b604051808273ffffffffffffffffffffffffffffffffffffffff1673ffffffffffffffffffffffffffffffffffffffff16815260200191505060405180910390f35b3480156104fe57600080fd5b5061050761130c565b6040518080602001828103825283818151815260200191508051906020019080838360005b8381101561054757808201518184015260208101905061052c565b50505050905090810190601f1680156105745780820380516001836020036101000a031916815260200191505b509250505060405180910390f35b34801561058e57600080fd5b506105d7600480360381019080803573ffffffffffffffffffffffffffffffffffffffff16906020019092919080359060200190929190803590602001909291905050506113ae565b604051808215151515815260200191505060405180910390f35b3480156105fd57600080fd5b5061063c600480360381019080803573ffffffffffffffffffffffffffffffffffffffff16906020019092919080359060200190929190505050611860565b604051808215151515815260200191505060405180910390f35b34801561066257600080fd5b5061066b611ccc565b604051808273ffffffffffffffffffffffffffffffffffffffff1673ffffffffffffffffffffffffffffffffffffffff16815260200191505060405180910390f35b3480156106b957600080fd5b5061070e600480360381019080803573ffffffffffffffffffffffffffffffffffffffff169060200190929190803573ffffffffffffffffffffffffffffffffffffffff169060200190929190505050611cf6565b6040518082815260200191505060405180910390f35b34801561073057600080fd5b50610739611d7d565b604051808260ff1660ff16815260200191505060405180910390f35b6000600560009054906101000a900473ffffffffffffffffffffffffffffffffffffffff1673ffffffffffffffffffffffffffffffffffffffff163373ffffffffffffffffffffffffffffffffffffffff1614806108005750600660009054906101000a900473ffffffffffffffffffffffffffffffffffffffff1673ffffffffffffffffffffffffffffffffffffffff163373ffffffffffffffffffffffffffffffffffffffff16145b151561080b57600080fd5b60011515600660149054906101000a900460ff16151514151561082d57600080fd5b6000600660146101000a81548160ff0219169083151502179055506001905090565b606060008054600181600116156101000203166002900480601f0160208091040260200160405190810160405280929190818152602001828054600181600116156101000203166002900480156108e75780601f106108bc576101008083540402835291602001916108e7565b820191906000526020600020905b8154815290600101906020018083116108ca57829003601f168201915b5050505050905090565b6000801515600660149054906101000a900460ff16151514151561091457600080fd5b60008211151561092357600080fd5b7fffffffffffffffffffffffffffffffffffffffffffffffffffffffffffffffff8210151561095157600080fd5b600073ffffffffffffffffffffffffffffffffffffffff168373ffffffffffffffffffffffffffffffffffffffff161415151561098d57600080fd5b610a1c82600960003373ffffffffffffffffffffffffffffffffffffffff1673ffffffffffffffffffffffffffffffffffffffff16815260200190815260200160002060008673ffffffffffffffffffffffffffffffffffffffff1673ffffffffffffffffffffffffffffffffffffffff16815260200190815260200160002054611d9490919063ffffffff16565b600960003373ffffffffffffffffffffffffffffffffffffffff1673ffffffffffffffffffffffffffffffffffffffff16815260200190815260200160002060008573ffffffffffffffffffffffffffffffffffffffff1673ffffffffffffffffffffffffffffffffffffffff168152602001908152602001600020819055507f8c5be1e5ebec7d5bd14f71427d1e84f3dd0314c0f7b2291e5b200ac8c7c3b925338484604051808473ffffffffffffffffffffffffffffffffffffffff1673ffffffffffffffffffffffffffffffffffffffff1681526020018373ffffffffffffffffffffffffffffffffffffffff1673ffffffffffffffffffffffffffffffffffffffff168152602001828152602001935050505060405180910390a16001905092915050565b600080823b905060008111915050919050565b6000600354905090565b6000801515600660149054906101000a900460ff16151514905090565b6000801515600660149054906101000a900460ff161515141515610ba257600080fd5b600073ffffffffffffffffffffffffffffffffffffffff168373ffffffffffffffffffffffffffffffffffffffff1614151515610bde57600080fd5b81600860008673ffffffffffffffffffffffffffffffffffffffff1673ffffffffffffffffffffffffffffffffffffffff1681526020019081526020016000205410151515610c2c57600080fd5b81600960008673ffffffffffffffffffffffffffffffffffffffff1673ffffffffffffffffffffffffffffffffffffffff16815260200190815260200160002060003373ffffffffffffffffffffffffffffffffffffffff1673ffffffffffffffffffffffffffffffffffffffff1681526020019081526020016000205410151515610cb757600080fd5b600082111515610cc657600080fd5b7fffffffffffffffffffffffffffffffffffffffffffffffffffffffffffffffff82101515610cf457600080fd5b610d4682600860008773ffffffffffffffffffffffffffffffffffffffff1673ffffffffffffffffffffffffffffffffffffffff16815260200190815260200160002054611db090919063ffffffff16565b600860008673ffffffffffffffffffffffffffffffffffffffff1673ffffffffffffffffffffffffffffffffffffffff16815260200190815260200160002081905550610ddb82600860008673ffffffffffffffffffffffffffffffffffffffff1673ffffffffffffffffffffffffffffffffffffffff16815260200190815260200160002054611d9490919063ffffffff16565b600860008573ffffffffffffffffffffffffffffffffffffffff1673ffffffffffffffffffffffffffffffffffffffff16815260200190815260200160002081905550610ead82600960008773ffffffffffffffffffffffffffffffffffffffff1673ffffffffffffffffffffffffffffffffffffffff16815260200190815260200160002060003373ffffffffffffffffffffffffffffffffffffffff1673ffffffffffffffffffffffffffffffffffffffff16815260200190815260200160002054611db090919063ffffffff16565b600960008673ffffffffffffffffffffffffffffffffffffffff1673ffffffffffffffffffffffffffffffffffffffff16815260200190815260200160002060003373ffffffffffffffffffffffffffffffffffffffff1673ffffffffffffffffffffffffffffffffffffffff168152602001908152602001600020819055507fddf252ad1be2c89b69c2b068fc378daa952ba7f163c4a11628f55a4df523b3ef848484604051808473ffffffffffffffffffffffffffffffffffffffff1673ffffffffffffffffffffffffffffffffffffffff1681526020018373ffffffffffffffffffffffffffffffffffffffff1673ffffffffffffffffffffffffffffffffffffffff168152602001828152602001935050505060405180910390a1600190509392505050565b6000600560009054906101000a900473ffffffffffffffffffffffffffffffffffffffff1673ffffffffffffffffffffffffffffffffffffffff163373ffffffffffffffffffffffffffffffffffffffff1614151561103557600080fd5b600073ffffffffffffffffffffffffffffffffffffffff168273ffffffffffffffffffffffffffffffffffffffff161415151561107157600080fd5b81600560006101000a81548173ffffffffffffffffffffffffffffffffffffffff021916908373ffffffffffffffffffffffffffffffffffffffff16021790555060019050919050565b6000600860008373ffffffffffffffffffffffffffffffffffffffff1673ffffffffffffffffffffffffffffffffffffffff168152602001908152602001600020549050919050565b6000600560009054906101000a900473ffffffffffffffffffffffffffffffffffffffff1673ffffffffffffffffffffffffffffffffffffffff163373ffffffffffffffffffffffffffffffffffffffff1614806111af5750600660009054906101000a900473ffffffffffffffffffffffffffffffffffffffff1673ffffffffffffffffffffffffffffffffffffffff163373ffffffffffffffffffffffffffffffffffffffff16145b15156111ba57600080fd5b60001515600660149054906101000a900460ff1615151415156111dc57600080fd5b6001600660146101000a81548160ff0219169083151502179055506001905090565b6000600660009054906101000a900473ffffffffffffffffffffffffffffffffffffffff1673ffffffffffffffffffffffffffffffffffffffff163373ffffffffffffffffffffffffffffffffffffffff1614151561125c57600080fd5b600073ffffffffffffffffffffffffffffffffffffffff168273ffffffffffffffffffffffffffffffffffffffff161415151561129857600080fd5b81600660006101000a81548173ffffffffffffffffffffffffffffffffffffffff021916908373ffffffffffffffffffffffffffffffffffffffff16021790555060019050919050565b6000600560009054906101000a900473ffffffffffffffffffffffffffffffffffffffff16905090565b606060018054600181600116156101000203166002900480601f0160208091040260200160405190810160405280929190818152602001828054600181600116156101000203166002900480156113a45780601f10611379576101008083540402835291602001916113a4565b820191906000526020600020905b81548152906001019060200180831161138757829003601f168201915b5050505050905090565b60008060001515600660149054906101000a900460ff1615151415156113d357600080fd5b6000841115156113e257600080fd5b7fffffffffffffffffffffffffffffffffffffffffffffffffffffffffffffffff8410151561141057600080fd5b83600860003373ffffffffffffffffffffffffffffffffffffffff1673ffffffffffffffffffffffffffffffffffffffff168152602001908152602001600020541015151561145e57600080fd5b61146785610b45565b151561147257600080fd5b600073ffffffffffffffffffffffffffffffffffffffff168573ffffffffffffffffffffffffffffffffffffffff16141515156114ae57600080fd5b61150084600860003373ffffffffffffffffffffffffffffffffffffffff1673ffffffffffffffffffffffffffffffffffffffff16815260200190815260200160002054611db090919063ffffffff16565b600860003373ffffffffffffffffffffffffffffffffffffffff1673ffffffffffffffffffffffffffffffffffffffff1681526020019081526020016000208190555061159584600860008873ffffffffffffffffffffffffffffffffffffffff1673ffffffffffffffffffffffffffffffffffffffff16815260200190815260200160002054611d9490919063ffffffff16565b600860008773ffffffffffffffffffffffffffffffffffffffff1673ffffffffffffffffffffffffffffffffffffffff1681526020019081526020016000208190555061166784600960003373ffffffffffffffffffffffffffffffffffffffff1673ffffffffffffffffffffffffffffffffffffffff16815260200190815260200160002060008873ffffffffffffffffffffffffffffffffffffffff1673ffffffffffffffffffffffffffffffffffffffff16815260200190815260200160002054611db090919063ffffffff16565b600960003373ffffffffffffffffffffffffffffffffffffffff1673ffffffffffffffffffffffffffffffffffffffff16815260200190815260200160002060008773ffffffffffffffffffffffffffffffffffffffff1673ffffffffffffffffffffffffffffffffffffffff168152602001908152602001600020819055508490508073ffffffffffffffffffffffffffffffffffffffff16634f4ee3533386866040518463ffffffff167c0100000000000000000000000000000000000000000000000000000000028152600401808473ffffffffffffffffffffffffffffffffffffffff1673ffffffffffffffffffffffffffffffffffffffff1681526020018381526020018281526020019350505050600060405180830381600087803b15801561179557600080fd5b505af11580156117a9573d6000803e3d6000fd5b505050507f9ed053bb818ff08b8353cd46f78db1f0799f31c9e4458fdb425c10eccd2efc4433868686604051808573ffffffffffffffffffffffffffffffffffffffff1673ffffffffffffffffffffffffffffffffffffffff1681526020018473ffffffffffffffffffffffffffffffffffffffff1673ffffffffffffffffffffffffffffffffffffffff16815260200183815260200182815260200194505050505060405180910390a160019150509392505050565b6000801515600660149054906101000a900460ff16151514151561188357600080fd5b81600860003373ffffffffffffffffffffffffffffffffffffffff1673ffffffffffffffffffffffffffffffffffffffff16815260200190815260200160002054101515156118d157600080fd5b6000821115156118e057600080fd5b7fffffffffffffffffffffffffffffffffffffffffffffffffffffffffffffffff8210151561190e57600080fd5b61191783610b45565b15151561192357600080fd5b600073ffffffffffffffffffffffffffffffffffffffff168373ffffffffffffffffffffffffffffffffffffffff161415151561195f57600080fd5b81600960003373ffffffffffffffffffffffffffffffffffffffff1673ffffffffffffffffffffffffffffffffffffffff16815260200190815260200160002060008573ffffffffffffffffffffffffffffffffffffffff1673ffffffffffffffffffffffffffffffffffffffff16815260200190815260200160002054101515156119ea57600080fd5b611a3c82600860003373ffffffffffffffffffffffffffffffffffffffff1673ffffffffffffffffffffffffffffffffffffffff16815260200190815260200160002054611db090919063ffffffff16565b600860003373ffffffffffffffffffffffffffffffffffffffff1673ffffffffffffffffffffffffffffffffffffffff16815260200190815260200160002081905550611ad182600860008673ffffffffffffffffffffffffffffffffffffffff1673ffffffffffffffffffffffffffffffffffffffff16815260200190815260200160002054611d9490919063ffffffff16565b600860008573ffffffffffffffffffffffffffffffffffffffff1673ffffffffffffffffffffffffffffffffffffffff16815260200190815260200160002081905550611ba382600960003373ffffffffffffffffffffffffffffffffffffffff1673ffffffffffffffffffffffffffffffffffffffff16815260200190815260200160002060008673ffffffffffffffffffffffffffffffffffffffff1673ffffffffffffffffffffffffffffffffffffffff16815260200190815260200160002054611db090919063ffffffff16565b600960003373ffffffffffffffffffffffffffffffffffffffff1673ffffffffffffffffffffffffffffffffffffffff16815260200190815260200160002060008573ffffffffffffffffffffffffffffffffffffffff1673ffffffffffffffffffffffffffffffffffffffff168152602001908152602001600020819055507fddf252ad1be2c89b69c2b068fc378daa952ba7f163c4a11628f55a4df523b3ef338484604051808473ffffffffffffffffffffffffffffffffffffffff1673ffffffffffffffffffffffffffffffffffffffff1681526020018373ffffffffffffffffffffffffffffffffffffffff1673ffffffffffffffffffffffffffffffffffffffff168152602001828152602001935050505060405180910390a16001905092915050565b6000600660009054906101000a900473ffffffffffffffffffffffffffffffffffffffff16905090565b6000600960008473ffffffffffffffffffffffffffffffffffffffff1673ffffffffffffffffffffffffffffffffffffffff16815260200190815260200160002060008373ffffffffffffffffffffffffffffffffffffffff1673ffffffffffffffffffffffffffffffffffffffff16815260200190815260200160002054905092915050565b6000600260009054906101000a900460ff16905090565b60008183019050828110151515611da757fe5b80905092915050565b6000828211151515611dbe57fe5b818303905092915050565b600080831415611ddc5760009050611dfb565b8183029050818382811515611ded57fe5b04141515611df757fe5b8090505b929150505600a165627a7a723058200e031e84c071c3cad61edcb9f7efcff9316ad0b2449577bc1e14b42ab871fcd70029",
  "source": "pragma solidity ^0.4.24;\n\n/*************************************************\n* Title: ERC20 Token\n* Author: https://github.com/willitscale\n* Date: NA\n* Code version: NA\n* Availability: https://github.com/willitscale/learning-solidity/blob/master/tutorial-10/MyFirstToken.sol\n*************************************************/\n\n/// @title Event Token (ET) implementation\n/// @author keshik\n/// @dev The contract declares the required functions, modifiers and events for the Event Token\nimport \"./StandardToken.sol\";\nimport \"./ERC20.sol\";\nimport \"./ERC223.sol\";\nimport \"./EventContract.sol\";\n\ncontract EventToken is StandardToken(\"EventToken\", \"ET\", 18, 500000000), ERC20, ERC223{\n\n  using SafeMath for uint256;\n  address private _controller1;\n  address private _controller2;\n  bool private _paused;\n  uint256 private _numberOfEvents;\n\n  // MaxLimit of uint256\n  uint256 constant MAX_LIMIT = 2**256 -1;\n\n  // Mapping to store addresses and balances\n  mapping (address => uint256) internal _balanceOf;\n\n  // Nested Mapping to store allowances\n  mapping (address => mapping (address => uint256)) internal _allowance;\n\n  constructor (address _ctrl2) public{\n    _controller1 = msg.sender;\n    _controller2 = _ctrl2;\n    _balanceOf[msg.sender] = _totalSupply;\n    _paused = false;\n    _numberOfEvents = 0;\n  }\n\n  modifier onlyCtrlLevel{\n      require(msg.sender == _controller1 || msg.sender == _controller2);\n      _;\n  }\n\n  modifier onlyCtrl1{\n      require(msg.sender == _controller1);\n      _;\n  }\n\n  modifier onlyCtrl2{\n      require(msg.sender == _controller2);\n      _;\n  }\n\n  modifier isPaused{\n      require(_paused == true);\n      _;\n  }\n\n  modifier isNotPaused{\n      require(_paused == false);\n      _;\n  }\n\n  /// @param _owner The address\n  /// @return balance of the of the address\n  function balanceOf(address _owner) public view returns (uint256){\n      return _balanceOf[_owner];\n  }\n\n  /// @notice send `_value` token to `_to` from `msg.sender`\n  /// @param _to The address of the recipient\n  /// @param _value The amount of token to be transferred\n  /// @return Whether the transfer was successful or not\n  function transfer(address _to, uint256 _value) external isNotPaused returns (bool){\n      require(_balanceOf[msg.sender] >= _value);\n      require(_value > 0);\n      require(_value < MAX_LIMIT);\n      require(!isContract(_to));\n      require(_to != address(0));\n      require(_allowance[msg.sender][_to] >= _value);\n      _balanceOf[msg.sender] = _balanceOf[msg.sender].sub(_value);\n      _balanceOf[_to] = _balanceOf[_to].add(_value);\n      _allowance[msg.sender][_to] = _allowance[msg.sender][_to].sub(_value);\n      emit Transfer(msg.sender, _to, _value);\n      return true;\n  }\n\n  /// @notice send `_value` token to `_to` from `msg.sender`\n  /// @param _to The address of the recipient\n  /// @param _value The amount of token to be transferred\n  /// @param _contractId Event pointer\n  /// @return Whether the transfer was successful or not\n  function transferToContract(address _to, uint256 _value, uint _contractId) external isNotPaused returns (bool){\n      require(_value > 0);\n      require(_value < MAX_LIMIT);\n      require(_balanceOf[msg.sender] >= _value);\n      require(isContract(_to));\n      require(_to != address(0));\n      _balanceOf[msg.sender] = _balanceOf[msg.sender].sub(_value);\n      _balanceOf[_to] = _balanceOf[_to].add(_value);\n      _allowance[msg.sender][_to] = _allowance[msg.sender][_to].sub(_value);\n      EventContract _contract = EventContract(_to);\n      _contract.tokenFallback(msg.sender, _value, _contractId);\n      emit Transfer(msg.sender, _to, _value, _contractId);\n      return true;\n  }\n\n  /// @notice send `_value` token to `_to` from `_from` on the condition it is approved by `_from`\n  /// @param _from The address of the sender\n  /// @param _to The address of the recipient\n  /// @param _value The amount of token to be transferred\n  /// @return Whether the transfer was successful or not\n  function transferFrom(address _from, address _to, uint256 _value) external isNotPaused returns (bool){\n      require(_to != address(0));\n      require(_balanceOf[_from] >= _value);\n      require(_allowance[_from][msg.sender] >= _value);\n      require(_value > 0);\n      require(_value < MAX_LIMIT);\n      _balanceOf[_from] = _balanceOf[_from].sub(_value);\n      _balanceOf[_to] = _balanceOf[_to].add(_value);\n      _allowance[_from][msg.sender] = _allowance[_from][msg.sender].sub(_value);\n      emit Transfer(_from, _to, _value);\n      return true;\n  }\n\n  /// @notice `msg.sender` approves `_spender` to spend `_value` tokens\n  /// @param _spender The address of the account able to transfer the tokens\n  /// @param _value The amount of tokens to be approved for transfer\n  /// @return Whether the approval was successful or not\n  function approve(address _spender, uint256 _value) external isNotPaused returns (bool){\n      require(_value > 0);\n      require(_value < MAX_LIMIT);\n      require(_spender != address(0));\n      _allowance[msg.sender][_spender] = _allowance[msg.sender][_spender].add(_value);\n      emit Approval(msg.sender, _spender, _value);\n      return true;\n  }\n\n  /// @param _owner The address of the account owning tokens\n  /// @param _spender The address of the account able to transfer the tokens\n  /// @return Amount of remaining tokens allowed to spent\n  function allowance(address _owner, address _spender) public view returns (uint256){\n      return _allowance[_owner][_spender];\n  }\n\n  /// @param _address The ethereum address to be verified\n  /// @return Amount of remaining tokens allowed to spent\n  function isContract(address _address) public view returns (bool){\n      uint256 codeLength;\n      assembly{\n          codeLength := extcodesize(_address)\n      }\n      return codeLength > 0;\n  }\n\n  function getCtrlAddress1() public view returns (address){\n      return _controller1;\n  }\n\n  function getCtrlAddress2() public view returns (address){\n      return _controller2;\n  }\n\n  /// @notice change controller address 1. This function can only be called by the existing controller1\n  /// @param _newCtrl1 The address of the new controller\n  /// @return Whether the setter was successful or not\n  function setCtrlAddress1(address _newCtrl1) external onlyCtrl1 returns (bool){\n      require(_newCtrl1 != address(0));\n      _controller1 = _newCtrl1;\n      return true;\n  }\n\n  /// @notice change controller address 2. This function can only be called by the existing controller2\n  /// @param _newCtrl2 The address of the new controller\n  /// @return Whether the setter was successful or not\n  function setCtrlAddress2(address _newCtrl2) external onlyCtrl2 returns (bool){\n      require(_newCtrl2 != address(0));\n      _controller2 = _newCtrl2;\n      return true;\n  }\n\n  /// @notice Pause the contract. Can only be called by the controllers\n  /// @return Whether the contract was successfully paused or not\n  function pause() external onlyCtrlLevel isNotPaused returns (bool){\n    _paused = true;\n    return true;\n  }\n\n  /// @notice Resume the contract. Can only be called by the controllers\n  /// @return Whether the contract was successfully resumed or not\n  function resume() external onlyCtrlLevel isPaused returns (bool){\n    _paused = false;\n    return true;\n  }\n\n  /// @return Whether the contract is paused or not\n  function isActive() external view returns (bool){\n    return _paused == false;\n  }\n\n}\n",
  "sourcePath": "/home/keshik/Documents/GitHub/event-protocol-contracts/contracts/EventToken.sol",
  "compiler": {
    "name": "solc",
    "version": "0.4.24+commit.e67f0147.Emscripten.clang"
  },
  "schemaVersion": "2.0.1",
  "updatedAt": "2018-11-07T00:14:00.637Z"
}