{
  "contractName": "EventContract",
  "abi": [
    {
      "inputs": [
        {
          "name": "eventProtocolAddress",
          "type": "address"
        },
        {
          "name": "eventTokenAddress",
          "type": "address"
        }
      ],
      "payable": false,
      "stateMutability": "nonpayable",
      "type": "constructor"
    },
    {
      "constant": false,
      "inputs": [
        {
          "name": "eventName",
          "type": "string"
        },
        {
          "name": "eventLocation",
          "type": "string"
        },
        {
          "name": "eventDate",
          "type": "uint256"
        },
        {
          "name": "buyer",
          "type": "address"
        },
        {
          "name": "buyerEscrow",
          "type": "uint256"
        },
        {
          "name": "sellerEscrow",
          "type": "uint256"
        },
        {
          "name": "sellerAdvanceFee",
          "type": "uint256"
        },
        {
          "name": "sellerCancellationPenalty",
          "type": "uint256"
        },
        {
          "name": "eventPaymentAmount",
          "type": "uint256"
        }
      ],
      "name": "newEvent",
      "outputs": [
        {
          "name": "",
          "type": "bool"
        }
      ],
      "payable": false,
      "stateMutability": "nonpayable",
      "type": "function"
    },
    {
      "constant": false,
      "inputs": [
        {
          "name": "_from",
          "type": "address"
        },
        {
          "name": "_value",
          "type": "uint256"
        },
        {
          "name": "_contractId",
          "type": "uint256"
        }
      ],
      "name": "tokenFallback",
      "outputs": [],
      "payable": false,
      "stateMutability": "nonpayable",
      "type": "function"
    },
    {
      "constant": true,
      "inputs": [
        {
          "name": "_contractId",
          "type": "uint256"
        }
      ],
      "name": "getBuyerActivationAmount",
      "outputs": [
        {
          "name": "",
          "type": "uint256"
        }
      ],
      "payable": false,
      "stateMutability": "view",
      "type": "function"
    },
    {
      "constant": true,
      "inputs": [
        {
          "name": "_contractId",
          "type": "uint256"
        }
      ],
      "name": "getSellerActivationAmount",
      "outputs": [
        {
          "name": "",
          "type": "uint256"
        }
      ],
      "payable": false,
      "stateMutability": "view",
      "type": "function"
    },
    {
      "constant": false,
      "inputs": [
        {
          "name": "_contractId",
          "type": "uint256"
        },
        {
          "name": "val",
          "type": "uint8"
        }
      ],
      "name": "resolveEvent",
      "outputs": [
        {
          "name": "",
          "type": "bool"
        }
      ],
      "payable": false,
      "stateMutability": "nonpayable",
      "type": "function"
    },
    {
      "constant": false,
      "inputs": [
        {
          "name": "_contractId",
          "type": "uint256"
        },
        {
          "name": "eventProtocolCharges",
          "type": "uint256"
        },
        {
          "name": "buyerAmount",
          "type": "uint256"
        },
        {
          "name": "sellerAmount",
          "type": "uint256"
        }
      ],
      "name": "payout",
      "outputs": [
        {
          "name": "",
          "type": "bool"
        }
      ],
      "payable": false,
      "stateMutability": "nonpayable",
      "type": "function"
    },
    {
      "constant": true,
      "inputs": [
        {
          "name": "_contractId",
          "type": "uint256"
        }
      ],
      "name": "getEventState",
      "outputs": [
        {
          "name": "",
          "type": "uint8"
        }
      ],
      "payable": false,
      "stateMutability": "view",
      "type": "function"
    },
    {
      "constant": true,
      "inputs": [
        {
          "name": "_contractId",
          "type": "uint256"
        }
      ],
      "name": "getBuyer",
      "outputs": [
        {
          "name": "",
          "type": "address"
        }
      ],
      "payable": false,
      "stateMutability": "view",
      "type": "function"
    },
    {
      "constant": true,
      "inputs": [
        {
          "name": "_contractId",
          "type": "uint256"
        }
      ],
      "name": "getSeller",
      "outputs": [
        {
          "name": "",
          "type": "address"
        }
      ],
      "payable": false,
      "stateMutability": "view",
      "type": "function"
    },
    {
      "constant": true,
      "inputs": [
        {
          "name": "_contractId",
          "type": "uint256"
        }
      ],
      "name": "getEventDate",
      "outputs": [
        {
          "name": "",
          "type": "uint256"
        }
      ],
      "payable": false,
      "stateMutability": "view",
      "type": "function"
    },
    {
      "constant": true,
      "inputs": [
        {
          "name": "_contractId",
          "type": "uint256"
        }
      ],
      "name": "getEventName",
      "outputs": [
        {
          "name": "",
          "type": "string"
        }
      ],
      "payable": false,
      "stateMutability": "view",
      "type": "function"
    },
    {
      "constant": true,
      "inputs": [
        {
          "name": "_contractId",
          "type": "uint256"
        }
      ],
      "name": "getEventLocation",
      "outputs": [
        {
          "name": "",
          "type": "string"
        }
      ],
      "payable": false,
      "stateMutability": "view",
      "type": "function"
    },
    {
      "constant": true,
      "inputs": [
        {
          "name": "_contractId",
          "type": "uint256"
        }
      ],
      "name": "getSellerAdvanceFee",
      "outputs": [
        {
          "name": "",
          "type": "uint256"
        }
      ],
      "payable": false,
      "stateMutability": "view",
      "type": "function"
    },
    {
      "constant": true,
      "inputs": [
        {
          "name": "_contractId",
          "type": "uint256"
        }
      ],
      "name": "getSellerCancellationPenalty",
      "outputs": [
        {
          "name": "",
          "type": "uint256"
        }
      ],
      "payable": false,
      "stateMutability": "view",
      "type": "function"
    },
    {
      "constant": true,
      "inputs": [
        {
          "name": "_contractId",
          "type": "uint256"
        }
      ],
      "name": "getEventCreationDate",
      "outputs": [
        {
          "name": "",
          "type": "uint256"
        }
      ],
      "payable": false,
      "stateMutability": "view",
      "type": "function"
    },
    {
      "constant": true,
      "inputs": [],
      "name": "getEventProtocolAddress",
      "outputs": [
        {
          "name": "",
          "type": "address"
        }
      ],
      "payable": false,
      "stateMutability": "view",
      "type": "function"
    },
    {
      "constant": true,
      "inputs": [
        {
          "name": "_contractId",
          "type": "uint256"
        }
      ],
      "name": "getEventProtocolCharges",
      "outputs": [
        {
          "name": "",
          "type": "uint256"
        }
      ],
      "payable": false,
      "stateMutability": "view",
      "type": "function"
    },
    {
      "constant": true,
      "inputs": [
        {
          "name": "_contractId",
          "type": "uint256"
        }
      ],
      "name": "getEventPaymentCharges",
      "outputs": [
        {
          "name": "",
          "type": "uint256"
        }
      ],
      "payable": false,
      "stateMutability": "view",
      "type": "function"
    },
    {
      "constant": true,
      "inputs": [
        {
          "name": "_contractId",
          "type": "uint256"
        }
      ],
      "name": "getBuyerEscrow",
      "outputs": [
        {
          "name": "",
          "type": "uint256"
        }
      ],
      "payable": false,
      "stateMutability": "view",
      "type": "function"
    },
    {
      "constant": true,
      "inputs": [
        {
          "name": "_contractId",
          "type": "uint256"
        }
      ],
      "name": "getSellerEscrow",
      "outputs": [
        {
          "name": "",
          "type": "uint256"
        }
      ],
      "payable": false,
      "stateMutability": "view",
      "type": "function"
    },
    {
      "constant": true,
      "inputs": [],
      "name": "getTokenAddress",
      "outputs": [
        {
          "name": "",
          "type": "address"
        }
      ],
      "payable": false,
      "stateMutability": "view",
      "type": "function"
    },
    {
      "constant": true,
      "inputs": [],
      "name": "getEventCount",
      "outputs": [
        {
          "name": "",
          "type": "uint256"
        }
      ],
      "payable": false,
      "stateMutability": "view",
      "type": "function"
    }
  ],
  "bytecode": "0x6080604052600060035534801561001557600080fd5b50604051604080612355833981018060405281019080805190602001909291908051906020019092919050505081600160006101000a81548173ffffffffffffffffffffffffffffffffffffffff021916908373ffffffffffffffffffffffffffffffffffffffff16021790555080600260006101000a81548173ffffffffffffffffffffffffffffffffffffffff021916908373ffffffffffffffffffffffffffffffffffffffff160217905550806000806101000a81548173ffffffffffffffffffffffffffffffffffffffff021916908373ffffffffffffffffffffffffffffffffffffffff1602179055505050612240806101156000396000f300608060405260043610610128576000357c0100000000000000000000000000000000000000000000000000000000900463ffffffff16806310fe9ae81461012d57806317a58909146101845780632a4ecbd3146101c55780632bf0eae614610206578063425aa5ba1461025d5780634945fcc7146103805780634f4ee3531461042657806355624fa51461047d57806355f0d3b0146104e05780635bf608b8146105215780636d89def21461058e5780637943ce66146105cf57806379bcb48f1461061057806380bea3c8146106b65780638a6a6ee8146106f75780638a948dea14610738578063b11975ee14610779578063ba672435146107ba578063d6a9de51146107fb578063d9e48f5c14610868578063da9db86614610893578063e5fc78c4146108e5575b600080fd5b34801561013957600080fd5b50610142610934565b604051808273ffffffffffffffffffffffffffffffffffffffff1673ffffffffffffffffffffffffffffffffffffffff16815260200191505060405180910390f35b34801561019057600080fd5b506101af6004803603810190808035906020019092919050505061095d565b6040518082815260200191505060405180910390f35b3480156101d157600080fd5b506101f060048036038101908080359060200190929190505050610998565b6040518082815260200191505060405180910390f35b34801561021257600080fd5b5061021b6109bd565b604051808273ffffffffffffffffffffffffffffffffffffffff1673ffffffffffffffffffffffffffffffffffffffff16815260200191505060405180910390f35b34801561026957600080fd5b50610366600480360381019080803590602001908201803590602001908080601f0160208091040260200160405190810160405280939291908181526020018383808284378201915050505050509192919290803590602001908201803590602001908080601f016020809104026020016040519081016040528093929190818152602001838380828437820191505050505050919291929080359060200190929190803573ffffffffffffffffffffffffffffffffffffffff16906020019092919080359060200190929190803590602001909291908035906020019092919080359060200190929190803590602001909291905050506109e7565b604051808215151515815260200191505060405180910390f35b34801561038c57600080fd5b506103ab60048036038101908080359060200190929190505050610d8c565b6040518080602001828103825283818151815260200191508051906020019080838360005b838110156103eb5780820151818401526020810190506103d0565b50505050905090810190601f1680156104185780820380516001836020036101000a031916815260200191505b509250505060405180910390f35b34801561043257600080fd5b5061047b600480360381019080803573ffffffffffffffffffffffffffffffffffffffff1690602001909291908035906020019092919080359060200190929190505050610e4a565b005b34801561048957600080fd5b506104c660048036038101908080359060200190929190803590602001909291908035906020019092919080359060200190929190505050611254565b604051808215151515815260200191505060405180910390f35b3480156104ec57600080fd5b5061050b60048036038101908080359060200190929190505050611961565b6040518082815260200191505060405180910390f35b34801561052d57600080fd5b5061054c60048036038101908080359060200190929190505050611986565b604051808273ffffffffffffffffffffffffffffffffffffffff1673ffffffffffffffffffffffffffffffffffffffff16815260200191505060405180910390f35b34801561059a57600080fd5b506105b9600480360381019080803590602001909291905050506119cb565b6040518082815260200191505060405180910390f35b3480156105db57600080fd5b506105fa600480360381019080803590602001909291905050506119f0565b6040518082815260200191505060405180910390f35b34801561061c57600080fd5b5061063b60048036038101908080359060200190929190505050611a15565b6040518080602001828103825283818151815260200191508051906020019080838360005b8381101561067b578082015181840152602081019050610660565b50505050905090810190601f1680156106a85780820380516001836020036101000a031916815260200191505b509250505060405180910390f35b3480156106c257600080fd5b506106e160048036038101908080359060200190929190505050611ad3565b6040518082815260200191505060405180910390f35b34801561070357600080fd5b5061072260048036038101908080359060200190929190505050611b0e565b6040518082815260200191505060405180910390f35b34801561074457600080fd5b5061076360048036038101908080359060200190929190505050611b33565b6040518082815260200191505060405180910390f35b34801561078557600080fd5b506107a460048036038101908080359060200190929190505050611b84565b6040518082815260200191505060405180910390f35b3480156107c657600080fd5b506107e560048036038101908080359060200190929190505050611ba9565b6040518082815260200191505060405180910390f35b34801561080757600080fd5b5061082660048036038101908080359060200190929190505050611bce565b604051808273ffffffffffffffffffffffffffffffffffffffff1673ffffffffffffffffffffffffffffffffffffffff16815260200191505060405180910390f35b34801561087457600080fd5b5061087d611c13565b6040518082815260200191505060405180910390f35b34801561089f57600080fd5b506108cb60048036038101908080359060200190929190803560ff169060200190929190505050611c1d565b604051808215151515815260200191505060405180910390f35b3480156108f157600080fd5b5061091060048036038101908080359060200190929190505050611de0565b6040518082600381111561092057fe5b60ff16815260200191505060405180910390f35b60008060009054906101000a900473ffffffffffffffffffffffffffffffffffffffff16905090565b60008060046000848152602001908152602001600020905061099081600a015482600c0154611e1290919063ffffffff16565b915050919050565b6000806004600084815260200190815260200160002090508060020154915050919050565b6000600160009054906101000a900473ffffffffffffffffffffffffffffffffffffffff16905090565b60006109f16120a4565b42891115156109ff57600080fd5b600073ffffffffffffffffffffffffffffffffffffffff168873ffffffffffffffffffffffffffffffffffffffff1614151515610a3b57600080fd5b600087111515610a4a57600080fd5b600086111515610a5957600080fd5b600085111515610a6857600080fd5b600084111515610a7757600080fd5b600083111515610a8657600080fd5b8a8160000181905250898160200181905250888160400181815250504281606001818152505087816080019073ffffffffffffffffffffffffffffffffffffffff16908173ffffffffffffffffffffffffffffffffffffffff1681525050338160a0019073ffffffffffffffffffffffffffffffffffffffff16908173ffffffffffffffffffffffffffffffffffffffff1681525050868160c0018181525050858160e00181815250508481610100018181525050838161012001818152505060008161016001906003811115610b5957fe5b90816003811115610b6657fe5b81525050610b7f610b78846005611e2e565b6064611e66565b81610180018181525050610ba181610180015184611e7c90919063ffffffff16565b81610140018181525050806004600060035481526020019081526020016000206000820151816000019080519060200190610bdd92919061216f565b506020820151816001019080519060200190610bfa92919061216f565b50604082015181600201556060820151816003015560808201518160040160006101000a81548173ffffffffffffffffffffffffffffffffffffffff021916908373ffffffffffffffffffffffffffffffffffffffff16021790555060a08201518160050160006101000a81548173ffffffffffffffffffffffffffffffffffffffff021916908373ffffffffffffffffffffffffffffffffffffffff16021790555060c0820151816006015560e082015181600701556101008201518160080155610120820151816009015561014082015181600a015561016082015181600b0160006101000a81548160ff02191690836003811115610cf757fe5b021790555061018082015181600c01556101a082015181600d01556101c082015181600e01556101e082015181600f0160006101000a81548173ffffffffffffffffffffffffffffffffffffffff021916908373ffffffffffffffffffffffffffffffffffffffff16021790555090505060036000815480929190600101919050555060019150509998505050505050505050565b60606000600460008481526020019081526020016000209050806000018054600181600116156101000203166002900480601f016020809104026020016040519081016040528092919081815260200182805460018160011615610100020316600290048015610e3d5780601f10610e1257610100808354040283529160200191610e3d565b820191906000526020600020905b815481529060010190602001808311610e2057829003601f168201915b5050505050915050919050565b600060046000838152602001908152602001600020905060006003811115610e6e57fe5b81600b0160009054906101000a900460ff166003811115610e8b57fe5b141515610e9757600080fd5b8060040160009054906101000a900473ffffffffffffffffffffffffffffffffffffffff1673ffffffffffffffffffffffffffffffffffffffff168473ffffffffffffffffffffffffffffffffffffffff161415610f0f57610f068382600d0154611e1290919063ffffffff16565b81600d01819055505b8060050160009054906101000a900473ffffffffffffffffffffffffffffffffffffffff1673ffffffffffffffffffffffffffffffffffffffff168473ffffffffffffffffffffffffffffffffffffffff161415610f8757610f7e8382600e0154611e1290919063ffffffff16565b81600e01819055505b610f9082611b33565b81600d015410158015610faf5750610fa782611ad3565b81600e015410155b1561124e57600181600b0160006101000a81548160ff02191690836003811115610fd557fe5b02179055506000809054906101000a900473ffffffffffffffffffffffffffffffffffffffff1673ffffffffffffffffffffffffffffffffffffffff1663095ea7b38260050160009054906101000a900473ffffffffffffffffffffffffffffffffffffffff1683600801546040518363ffffffff167c0100000000000000000000000000000000000000000000000000000000028152600401808373ffffffffffffffffffffffffffffffffffffffff1673ffffffffffffffffffffffffffffffffffffffff16815260200182815260200192505050602060405180830381600087803b1580156110c657600080fd5b505af11580156110da573d6000803e3d6000fd5b505050506040513d60208110156110f057600080fd5b8101908080519060200190929190505050506000809054906101000a900473ffffffffffffffffffffffffffffffffffffffff1673ffffffffffffffffffffffffffffffffffffffff1663a9059cbb8260050160009054906101000a900473ffffffffffffffffffffffffffffffffffffffff1683600801546040518363ffffffff167c0100000000000000000000000000000000000000000000000000000000028152600401808373ffffffffffffffffffffffffffffffffffffffff1673ffffffffffffffffffffffffffffffffffffffff16815260200182815260200192505050602060405180830381600087803b1580156111ee57600080fd5b505af1158015611202573d6000803e3d6000fd5b505050506040513d602081101561121857600080fd5b810190808051906020019092919050505050611245816008015482600a0154611e7c90919063ffffffff16565b81600a01819055505b50505050565b6000806004600087815260200190815260200160002090506000809054906101000a900473ffffffffffffffffffffffffffffffffffffffff1673ffffffffffffffffffffffffffffffffffffffff1663095ea7b3600160009054906101000a900473ffffffffffffffffffffffffffffffffffffffff16876040518363ffffffff167c0100000000000000000000000000000000000000000000000000000000028152600401808373ffffffffffffffffffffffffffffffffffffffff1673ffffffffffffffffffffffffffffffffffffffff16815260200182815260200192505050602060405180830381600087803b15801561135257600080fd5b505af1158015611366573d6000803e3d6000fd5b505050506040513d602081101561137c57600080fd5b8101908080519060200190929190505050506000809054906101000a900473ffffffffffffffffffffffffffffffffffffffff1673ffffffffffffffffffffffffffffffffffffffff1663a9059cbb600160009054906101000a900473ffffffffffffffffffffffffffffffffffffffff16876040518363ffffffff167c0100000000000000000000000000000000000000000000000000000000028152600401808373ffffffffffffffffffffffffffffffffffffffff1673ffffffffffffffffffffffffffffffffffffffff16815260200182815260200192505050602060405180830381600087803b15801561147457600080fd5b505af1158015611488573d6000803e3d6000fd5b505050506040513d602081101561149e57600080fd5b8101908080519060200190929190505050506000841115611702576000809054906101000a900473ffffffffffffffffffffffffffffffffffffffff1673ffffffffffffffffffffffffffffffffffffffff1663095ea7b38260040160009054906101000a900473ffffffffffffffffffffffffffffffffffffffff16866040518363ffffffff167c0100000000000000000000000000000000000000000000000000000000028152600401808373ffffffffffffffffffffffffffffffffffffffff1673ffffffffffffffffffffffffffffffffffffffff16815260200182815260200192505050602060405180830381600087803b1580156115a157600080fd5b505af11580156115b5573d6000803e3d6000fd5b505050506040513d60208110156115cb57600080fd5b8101908080519060200190929190505050506000809054906101000a900473ffffffffffffffffffffffffffffffffffffffff1673ffffffffffffffffffffffffffffffffffffffff1663a9059cbb8260040160009054906101000a900473ffffffffffffffffffffffffffffffffffffffff16866040518363ffffffff167c0100000000000000000000000000000000000000000000000000000000028152600401808373ffffffffffffffffffffffffffffffffffffffff1673ffffffffffffffffffffffffffffffffffffffff16815260200182815260200192505050602060405180830381600087803b1580156116c557600080fd5b505af11580156116d9573d6000803e3d6000fd5b505050506040513d60208110156116ef57600080fd5b8101908080519060200190929190505050505b6000831115611954576000809054906101000a900473ffffffffffffffffffffffffffffffffffffffff1673ffffffffffffffffffffffffffffffffffffffff1663095ea7b38260050160009054906101000a900473ffffffffffffffffffffffffffffffffffffffff16856040518363ffffffff167c0100000000000000000000000000000000000000000000000000000000028152600401808373ffffffffffffffffffffffffffffffffffffffff1673ffffffffffffffffffffffffffffffffffffffff16815260200182815260200192505050602060405180830381600087803b1580156117f357600080fd5b505af1158015611807573d6000803e3d6000fd5b505050506040513d602081101561181d57600080fd5b8101908080519060200190929190505050506000809054906101000a900473ffffffffffffffffffffffffffffffffffffffff1673ffffffffffffffffffffffffffffffffffffffff1663a9059cbb8260050160009054906101000a900473ffffffffffffffffffffffffffffffffffffffff16856040518363ffffffff167c0100000000000000000000000000000000000000000000000000000000028152600401808373ffffffffffffffffffffffffffffffffffffffff1673ffffffffffffffffffffffffffffffffffffffff16815260200182815260200192505050602060405180830381600087803b15801561191757600080fd5b505af115801561192b573d6000803e3d6000fd5b505050506040513d602081101561194157600080fd5b8101908080519060200190929190505050505b6001915050949350505050565b6000806004600084815260200190815260200160002090508060070154915050919050565b6000806004600084815260200190815260200160002090508060040160009054906101000a900473ffffffffffffffffffffffffffffffffffffffff16915050919050565b6000806004600084815260200190815260200160002090508060030154915050919050565b60008060046000848152602001908152602001600020905080600c0154915050919050565b60606000600460008481526020019081526020016000209050806001018054600181600116156101000203166002900480601f016020809104026020016040519081016040528092919081815260200182805460018160011615610100020316600290048015611ac65780601f10611a9b57610100808354040283529160200191611ac6565b820191906000526020600020905b815481529060010190602001808311611aa957829003601f168201915b5050505050915050919050565b600080600460008481526020019081526020016000209050611b0681600901548260070154611e1290919063ffffffff16565b915050919050565b6000806004600084815260200190815260200160002090508060060154915050919050565b600080600460008481526020019081526020016000209050611b7c81600c0154611b6e83600a01548460060154611e1290919063ffffffff16565b611e1290919063ffffffff16565b915050919050565b6000806004600084815260200190815260200160002090508060080154915050919050565b6000806004600084815260200190815260200160002090508060090154915050919050565b6000806004600084815260200190815260200160002090508060050160009054906101000a900473ffffffffffffffffffffffffffffffffffffffff16915050919050565b6000600354905090565b6000808360006004600083815260200190815260200160002090508060040160009054906101000a900473ffffffffffffffffffffffffffffffffffffffff1673ffffffffffffffffffffffffffffffffffffffff163373ffffffffffffffffffffffffffffffffffffffff161480611ce557508060050160009054906101000a900473ffffffffffffffffffffffffffffffffffffffff1673ffffffffffffffffffffffffffffffffffffffff163373ffffffffffffffffffffffffffffffffffffffff16145b1515611cf057600080fd5b60046000878152602001908152602001600020925060018560ff161480611d1a575060028560ff16145b1515611d2557600080fd5b60016003811115611d3257fe5b83600b0160009054906101000a900460ff166003811115611d4f57fe5b141515611d5b57600080fd5b3383600f0160006101000a81548173ffffffffffffffffffffffffffffffffffffffff021916908373ffffffffffffffffffffffffffffffffffffffff16021790555060028560ff16148015611db45750428360020154115b15611dc857611dc286611e95565b50611dd3565b611dd186611ffa565b505b6001935050505092915050565b60008060046000848152602001908152602001600020905080600b0160009054906101000a900460ff16915050919050565b60008183019050828110151515611e2557fe5b80905092915050565b600080831415611e415760009050611e60565b8183029050818382811515611e5257fe5b04141515611e5c57fe5b8090505b92915050565b60008183811515611e7357fe5b04905092915050565b6000828211151515611e8a57fe5b818303905092915050565b6000806000806004600086815260200190815260200160002092508260040160009054906101000a900473ffffffffffffffffffffffffffffffffffffffff1673ffffffffffffffffffffffffffffffffffffffff1683600f0160009054906101000a900473ffffffffffffffffffffffffffffffffffffffff1673ffffffffffffffffffffffffffffffffffffffff161415611f7c57611f4783600901548460070154611e1290919063ffffffff16565b9150611f64836006015484600a0154611e1290919063ffffffff16565b9050611f768584600c01548385611254565b50611fc8565b82600701549150611fb48360090154611fa6856006015486600a0154611e1290919063ffffffff16565b611e1290919063ffffffff16565b9050611fc68584600c01548385611254565b505b600283600b0160006101000a81548160ff02191690836003811115611fe957fe5b021790555060019350505050919050565b60008060008060046000868152602001908152602001600020925082600201544211151561202757600080fd5b612058836009015461204a856007015486600a0154611e1290919063ffffffff16565b611e1290919063ffffffff16565b9150826006015490506120718584600c01548385611254565b50600383600b0160006101000a81548160ff0219169083600381111561209357fe5b021790555060019350505050919050565b6102006040519081016040528060608152602001606081526020016000815260200160008152602001600073ffffffffffffffffffffffffffffffffffffffff168152602001600073ffffffffffffffffffffffffffffffffffffffff16815260200160008152602001600081526020016000815260200160008152602001600081526020016000600381111561213757fe5b8152602001600081526020016000815260200160008152602001600073ffffffffffffffffffffffffffffffffffffffff1681525090565b828054600181600116156101000203166002900490600052602060002090601f016020900481019282601f106121b057805160ff19168380011785556121de565b828001600101855582156121de579182015b828111156121dd5782518255916020019190600101906121c2565b5b5090506121eb91906121ef565b5090565b61221191905b8082111561220d5760008160009055506001016121f5565b5090565b905600a165627a7a723058208cac11728b6cc7d3b493d5834f510b25d4284dfb66e1955500f2bcdaa14a1cc90029",
  "source": "pragma solidity ^0.4.24;\n\nimport \"./EventToken.sol\";\n\ncontract EventContract{\n  using SafeMath for uint;\n  \n  // Global Variables\n  enum EVENTSTATE {NOTACTIVE, ACTIVE, CANCELLED, SUCCESS}\n  EventToken private _ETContract;\n  address private _eventProtocolAddress;\n  address private _eventTokenAddress;\n  uint private _pointer = 0;\n  \n  // Mapping to store contract structs\n  mapping(uint => _Contract) private _contracts;\n  \n  // constructor\n  constructor(address eventProtocolAddress, address eventTokenAddress) public{\n      _eventProtocolAddress = eventProtocolAddress;\n      _eventTokenAddress = eventTokenAddress;\n      _ETContract = EventToken(eventTokenAddress);\n  }\n  \n  // Contract Struct\n  struct _Contract{\n      \n      // Event metadata\n      string _eventName;\n      string  _eventLocation;\n      uint _eventDate;\n      uint _eventCreationDate;\n      \n      // Actors addresses\n      address _buyer;\n      address _seller;\n      \n      // Actor Escrows\n      uint _buyerEscrow;\n      uint _sellerEscrow;\n      \n      // Other parameters\n      uint _sellerAdvanceFee;\n      uint _sellerCancellationPenalty;\n      uint _eventPaymentAmount;\n      \n      // Event state\n      EVENTSTATE _eventState;\n      \n      // Event Protocol Parameters\n      uint _eventProtocolCharges;\n      \n      // Activation Amounts\n      uint _buyerTransferred;\n      uint _sellerTransferred;\n      \n      // Resolve Event Variables\n      address _resolver;\n  }\n    \n  \n  function newEvent (string eventName,\n    string eventLocation,\n    uint eventDate,\n    address buyer,\n    uint buyerEscrow,\n    uint sellerEscrow,\n    uint sellerAdvanceFee,\n    uint sellerCancellationPenalty,\n    uint eventPaymentAmount\n    ) public returns (bool){\n      \n      _Contract memory myContract;\n      \n      require(eventDate > now);\n      require(buyer != address(0));\n      require(buyerEscrow > 0);\n      require(sellerEscrow > 0);\n      require(sellerAdvanceFee > 0);\n      require(sellerCancellationPenalty > 0);\n      require(eventPaymentAmount > 0);\n      myContract._eventName = eventName;\n      myContract._eventLocation = eventLocation;\n      myContract._eventDate = eventDate;\n      myContract._eventCreationDate = now;\n      myContract._buyer = buyer;\n      myContract._seller = msg.sender;\n      myContract._buyerEscrow = buyerEscrow;\n      myContract._sellerEscrow = sellerEscrow;\n      myContract._sellerAdvanceFee = sellerAdvanceFee;\n      myContract._sellerCancellationPenalty = sellerCancellationPenalty;\n      myContract._eventState = EVENTSTATE.NOTACTIVE;\n      myContract._eventProtocolCharges = SafeMath.div(SafeMath.mul(eventPaymentAmount, 5), 100);\n      myContract._eventPaymentAmount = eventPaymentAmount.sub(myContract._eventProtocolCharges);\n      \n      _contracts[_pointer] = myContract;\n      _pointer++;\n      return true;\n  }\n\n  modifier onlyBuyer(uint _contractId){\n      _Contract storage myContract = _contracts[_contractId];\n      require(msg.sender == myContract._buyer);\n      _;\n  }\n\n  modifier onlySeller(uint _contractId){\n      _Contract storage myContract = _contracts[_contractId];\n      require(msg.sender == myContract._seller);\n      _;\n  }\n\n  modifier onlyBuyerAndSeller(uint _contractId){\n      _Contract storage myContract = _contracts[_contractId];\n      require(msg.sender == myContract._buyer || msg.sender == myContract._seller);\n      _;\n  }\n\n  function tokenFallback(address _from, uint256 _value, uint _contractId) public{\n      _Contract storage myContract = _contracts[_contractId];\n      require(myContract._eventState == EVENTSTATE.NOTACTIVE);\n      \n      if (_from == myContract._buyer){\n          myContract._buyerTransferred = myContract._buyerTransferred.add(_value);\n      }\n      \n      if (_from == myContract._seller){\n          myContract._sellerTransferred = myContract._sellerTransferred.add(_value);\n      }\n      \n      if(myContract._buyerTransferred >= getBuyerActivationAmount(_contractId) && myContract._sellerTransferred >= getSellerActivationAmount(_contractId)){\n        myContract._eventState = EVENTSTATE.ACTIVE;\n        _ETContract.approve(myContract._seller, myContract._sellerAdvanceFee);\n        _ETContract.transfer(myContract._seller, myContract._sellerAdvanceFee);\n        myContract._eventPaymentAmount = myContract._eventPaymentAmount.sub(myContract._sellerAdvanceFee);\n      }\n  }\n\n  function getBuyerActivationAmount(uint _contractId) public view returns (uint){\n      _Contract storage myContract = _contracts[_contractId];\n      return myContract._buyerEscrow.add(myContract._eventPaymentAmount).add(myContract._eventProtocolCharges);\n  }\n\n  function getSellerActivationAmount(uint _contractId) public view returns (uint){\n      _Contract storage myContract = _contracts[_contractId];\n      return myContract._sellerEscrow.add(myContract._sellerCancellationPenalty);\n  }\n\n\n  function resolveEvent(uint _contractId, uint8 val) public onlyBuyerAndSeller(_contractId) returns (bool){\n      _Contract storage myContract = _contracts[_contractId];\n      require(val == 1 || val == 2);\n      require(myContract._eventState == EVENTSTATE.ACTIVE);\n      \n      myContract._resolver = msg.sender;\n      if (val == 2 && myContract._eventDate > now){\n        cancelEvent(_contractId);\n      }\n\n      else{\n        successEvent(_contractId);\n      }\n      \n     \n      return true;\n  }\n\n  function cancelEvent(uint _contractId) internal returns (bool){\n      _Contract storage myContract = _contracts[_contractId];\n      \n      uint _sellerCharges;\n      uint _buyerCharges;\n      \n      // If buyer cancels the event, the advance payment will be vested with the seller\n      if (myContract._resolver == myContract._buyer){\n        _sellerCharges = myContract._sellerEscrow.add(myContract._sellerCancellationPenalty);\n        _buyerCharges = myContract._eventPaymentAmount.add(myContract._buyerEscrow);\n        payout(_contractId, myContract._eventProtocolCharges, _buyerCharges, _sellerCharges);\n      }\n\n      // If seller cancels the event, the cancellation fees will be paid back and advance may be paid back\n      else{\n        _sellerCharges = myContract._sellerEscrow;\n        _buyerCharges = myContract._eventPaymentAmount.add(myContract._buyerEscrow).add(myContract._sellerCancellationPenalty);\n        payout(_contractId, myContract._eventProtocolCharges, _buyerCharges, _sellerCharges);\n      }\n\n      myContract._eventState = EVENTSTATE.CANCELLED;\n      return true;\n  }\n\n  function successEvent(uint _contractId) internal returns (bool){\n      _Contract storage myContract = _contracts[_contractId];\n      require(now > myContract._eventDate);\n      \n      uint _sellerCharges = myContract._eventPaymentAmount.add(myContract._sellerEscrow).add(myContract._sellerCancellationPenalty);\n      uint _buyerCharges = myContract._buyerEscrow;\n      payout(_contractId, myContract._eventProtocolCharges, _buyerCharges, _sellerCharges);\n      myContract._eventState = EVENTSTATE.SUCCESS;\n      return true;\n  }\n\n  function payout(uint _contractId, uint eventProtocolCharges, uint buyerAmount, uint sellerAmount) public returns (bool){\n      _Contract storage myContract = _contracts[_contractId];\n      _ETContract.approve(_eventProtocolAddress, eventProtocolCharges);\n      _ETContract.transfer(_eventProtocolAddress, eventProtocolCharges);\n\n      if (buyerAmount > 0){\n        _ETContract.approve(myContract._buyer, buyerAmount);\n        _ETContract.transfer(myContract._buyer, buyerAmount);\n      }\n\n      if (sellerAmount > 0){\n        _ETContract.approve(myContract._seller, sellerAmount);\n        _ETContract.transfer(myContract._seller, sellerAmount);\n      }\n      return true;\n  }\n\n  function getEventState(uint _contractId) public view returns (EVENTSTATE){\n      _Contract storage myContract = _contracts[_contractId];\n      return myContract._eventState;\n  }\n\n  function getBuyer(uint _contractId) public view returns (address){\n      _Contract storage myContract = _contracts[_contractId];\n      return myContract._buyer;\n  }\n\n  function getSeller(uint _contractId) public view returns (address){\n      _Contract storage myContract = _contracts[_contractId];\n      return myContract._seller;\n  }\n\n  function getEventDate(uint _contractId) public view returns (uint){\n      _Contract storage myContract = _contracts[_contractId];\n      return myContract._eventDate;\n  }\n\n  function getEventName(uint _contractId) public view returns (string){\n      _Contract storage myContract = _contracts[_contractId];\n      return myContract._eventName;\n  }\n\n  function getEventLocation(uint _contractId) public view returns (string){\n      _Contract storage myContract = _contracts[_contractId];\n      return myContract._eventLocation;\n  }\n\n  function getSellerAdvanceFee(uint _contractId) public view returns (uint){\n      _Contract storage myContract = _contracts[_contractId];\n      return myContract._sellerAdvanceFee;\n  }\n\n  function getSellerCancellationPenalty(uint _contractId) public view returns (uint){\n      _Contract storage myContract = _contracts[_contractId];\n      return myContract._sellerCancellationPenalty;\n  }\n\n  function getEventCreationDate(uint _contractId) public view returns (uint){\n      _Contract storage myContract = _contracts[_contractId];\n      return myContract._eventCreationDate;\n  }\n\n  function getEventProtocolAddress() public view returns (address){\n      return _eventProtocolAddress;\n  }\n\n  function getEventProtocolCharges(uint _contractId) public view returns (uint){\n      _Contract storage myContract = _contracts[_contractId];\n      return myContract._eventProtocolCharges;\n  }\n\n  function getEventPaymentCharges(uint _contractId) public view returns (uint){\n      _Contract storage myContract = _contracts[_contractId];\n      return myContract._eventProtocolCharges.add(myContract._eventPaymentAmount);\n  }\n\n  function getBuyerEscrow(uint _contractId) public view returns (uint){\n      _Contract storage myContract = _contracts[_contractId];\n      return myContract._buyerEscrow;\n  }\n  \n  function getSellerEscrow(uint _contractId) public view returns (uint){\n      _Contract storage myContract = _contracts[_contractId];\n      return myContract._sellerEscrow;\n  }\n\n  function getTokenAddress() public view returns (address){\n      return address(_ETContract);\n  }\n  \n  function getEventCount() public view returns (uint){\n      return _pointer;\n  }\n\n}\n",
  "sourcePath": "/home/keshik/Documents/GitHub/event-protocol-contracts/contracts/EventContract.sol",
  "compiler": {
    "name": "solc",
    "version": "0.4.24+commit.e67f0147.Emscripten.clang"
  },
  "schemaVersion": "2.0.1",
  "updatedAt": "2018-11-07T00:14:31.183Z"
}